{
  "contractName": "TransferFromAccount2ToAccount1",
  "abi": [
    {
      "inputs": [],
      "name": "account1",
      "outputs": [
        {
          "internalType": "address",
          "name": "",
          "type": "address"
        }
      ],
      "stateMutability": "view",
      "type": "function",
      "constant": true
    },
    {
      "inputs": [],
      "name": "account2",
      "outputs": [
        {
          "internalType": "address",
          "name": "",
          "type": "address"
        }
      ],
      "stateMutability": "view",
      "type": "function",
      "constant": true
    },
    {
      "stateMutability": "payable",
      "type": "receive",
      "payable": true
    },
    {
      "inputs": [],
      "name": "transfer",
      "outputs": [],
      "stateMutability": "payable",
      "type": "function",
      "payable": true
    }
  ],
  "bytecode": "0x60806040527320ecd7ff07a6ca193c9d799b98b39cf588e0da966000806101000a81548173ffffffffffffffffffffffffffffffffffffffff021916908373ffffffffffffffffffffffffffffffffffffffff16021790555073ee651aea53a6221939790f7e62cf8409f71cef97600160006101000a81548173ffffffffffffffffffffffffffffffffffffffff021916908373ffffffffffffffffffffffffffffffffffffffff1602179055503480156100b957600080fd5b506103cb806100c96000396000f3fe6080604052600436106100385760003560e01c806382f8152c146100445780638a4068dd1461006f578063ecfd0a56146100795761003f565b3661003f57005b600080fd5b34801561005057600080fd5b506100596100a4565b604051610066919061026b565b60405180910390f35b6100776100ca565b005b34801561008557600080fd5b5061008e610206565b60405161009b919061026b565b60405180910390f35b600160009054906101000a900473ffffffffffffffffffffffffffffffffffffffff1681565b600160009054906101000a900473ffffffffffffffffffffffffffffffffffffffff1673ffffffffffffffffffffffffffffffffffffffff163373ffffffffffffffffffffffffffffffffffffffff161461015a576040517f08c379a000000000000000000000000000000000000000000000000000000000815260040161015190610309565b60405180910390fd5b6000341161019d576040517f08c379a000000000000000000000000000000000000000000000000000000000815260040161019490610375565b60405180910390fd5b60008054906101000a900473ffffffffffffffffffffffffffffffffffffffff1673ffffffffffffffffffffffffffffffffffffffff166108fc349081150290604051600060405180830381858888f19350505050158015610203573d6000803e3d6000fd5b50565b60008054906101000a900473ffffffffffffffffffffffffffffffffffffffff1681565b600073ffffffffffffffffffffffffffffffffffffffff82169050919050565b60006102558261022a565b9050919050565b6102658161024a565b82525050565b6000602082019050610280600083018461025c565b92915050565b600082825260208201905092915050565b7f4f6e6c79206163636f756e7420322063616e20696e697469617465207472616e60008201527f7366657273000000000000000000000000000000000000000000000000000000602082015250565b60006102f3602583610286565b91506102fe82610297565b604082019050919050565b60006020820190508181036000830152610322816102e6565b9050919050565b7f416d6f756e74206d7573742062652067726561746572207468616e207a65726f600082015250565b600061035f602083610286565b915061036a82610329565b602082019050919050565b6000602082019050818103600083015261038e81610352565b905091905056fea26469706673582212206be68250d32e0ebb3c928c79ed20bbb9307baf062b373171dc2db500ea42c82f64736f6c634300080d0033",
  "immutableReferences": {},
  "source": "// SPDX-License-Identifier: MIT\r\npragma solidity ^0.8.13;\r\n\r\ncontract TransferFromAccount2ToAccount1 {\r\n    address public account1 = 0x20ecD7fF07a6ca193C9D799b98b39CF588E0DA96;\r\n    address public account2 = 0xee651aea53A6221939790F7e62Cf8409f71cEf97;\r\n\r\n    function transfer() public payable {\r\n        require(msg.sender == account2, \"Only account 2 can initiate transfers\");\r\n        require(msg.value > 0, \"Amount must be greater than zero\");\r\n\r\n        payable(account1).transfer(msg.value);\r\n    }\r\n\r\n    // Function to receive Ether\r\n    receive() external payable {}\r\n}\r\n",
  "sourcePath": "C:\\Users\\Abhinav\\Documents\\Full-stack\\test-app\\truffle\\contracts\\TransferFromAccount2ToAccount1.sol",
  "compiler": {
    "name": "solc",
    "version": "0.8.13+commit.abaa5c0e.Emscripten.clang"
  },
  "schemaVersion": "3.4.16",
  "updatedAt": "2024-07-15T08:49:11.179Z",
  "networkType": "ethereum",
  "devdoc": {
    "kind": "dev",
    "methods": {},
    "version": 1
  },
  "userdoc": {
    "kind": "user",
    "methods": {},
    "version": 1
  }
}